:020000040800F2
:10000000000008206D0F0008F50E0008FB0E000828
:10001000010F0008070F00080D0F00080000000086
:10002000000000000000000000000000130F0008A6
:10003000210F0008000000002F0F00083D0F0008EE
:10004000BD0F0008BD0F0008BD0F0008BD0F000860
:10005000BD0F0008BD0F0008BD0F0008BD0F000850
:10006000BD0F0008BD0F0008BD0F0008BD0F000840
:10007000BD0F0008BD0F0008BD0F0008BD0F000830
:10008000BD0F0008BD0F0008BD0F0008BD0F000820
:10009000BD0F0008BD0F0008BD0F0008BD0F000810
:1000A000BD0F0008BD0F0008BD0F0008BD0F000800
:1000B000BD0F0008BD0F0008BD0F0008BD0F0008F0
:1000C000BD0F0008BD0F0008BD0F0008BD0F0008E0
:1000D000BD0F0008BD0F0008BD0F0008BD0F0008D0
:1000E000BD0F0008BD0F0008BD0F0008BD0F0008C0
:1000F000BD0F0008BD0F0008BD0F0008BD0F0008B0
:10010000BD0F0008BD0F0008BD0F0008BD0F00089F
:10011000BD0F0008BD0F0008BD0F0008BD0F00088F
:10012000BD0F0008BD0F0008BD0F0008BD0F00087F
:10013000BD0F0008BD0F0008BD0F0008BD0F00086F
:10014000BD0F0008BD0F0008BD0F0008BD0F00085F
:10015000BD0F0008BD0F0008BD0F0008BD0F00084F
:10016000BD0F0008BD0F0008BD0F0008BD0F00083F
:10017000BD0F0008BD0F0008BD0F0008BD0F00082F
:10018000BD0F0008BD0F0008BD0F0008BD0F00081F
:10019000BD0F0008BD0F0008BD0F0008BD0F00080F
:1001A000BD0F0008BD0F0008BD0F0008BD0F0008FF
:1001B000BD0F0008BD0F0008BD0F0008BD0F0008EF
:1001C000BD0F0008BD0F000800000000BD0F0008B3
:1001D000BD0F0008BD0F0008BD0F0008BD0F0008CF
:1001E000BD0F0008BD0F0008BD0F0008BD0F0008BF
:0801F000BD0F0008BD0F00085F
:1001F80010B5054C237833B9044B13B10448AFF359
:1002080000800123237010BD6C0000200000000056
:1002180018CC000808B5034B1BB103490348AFF3DA
:10022800008008BD000000007000002018CC000805
:1002380053B94AB9002908BF00281CBF4FF0FF3145
:100248004FF0FF3000F06EB9ADF1080C6DE904CE47
:1002580000F006F8DDF804E0DDE9022304B0704799
:100268002DE9F047089D04468C46002B40F083801A
:100278008A42174647D9B2FA82F242B1C2F1200047
:1002880024FA00F09140974040EA010C94404FEA6C
:100298001748230CBCFBF8F61FFA87FE08FB16C1AB
:1002A80043EA014306FB0EF1994209D9FB1806F10E
:1002B800FF3080F01981994240F21681023E3B449A
:1002C8005B1AA4B2B3FBF8F008FB103344EA03440A
:1002D80000FB0EFEA64509D93C1900F1FF3380F05A
:1002E8000581A64540F2028102383C4440EA0640B6
:1002F800A4EB0E0400261DB1D4400023C5E9004339
:100308003146BDE8F08702B9FFDEB2FA82F2002A70
:1003180050D1CB1B4FEA174E1FFA87F80126B3FBC3
:10032800FEFC210C0EFB1C3341EA034108FB0CF3D5
:100338008B4207D979180CF1FF3002D28B4200F2B8
:10034800E9808446C91AA3B2B1FBFEF00EFB101176
:1003580043EA014408FB00F8A04507D93C1900F11D
:10036800FF3302D2A04500F2D9801846A4EB080456
:1003780040EA0C40BFE78B4209D9002D00F0B1805C
:100388000026C5E9000130463146BDE8F087B3FADA
:1003980083F6002E4AD18B4202D3824200F2B88003
:1003A800841A61EB030101208C46002DA8D0C5E911
:1003B800004CA5E7C2F1200320FA03F6974001FAA2
:1003C80002F04FEA174ED9403043030CB1FBFEF65A
:1003D8001FFA87F80EFB161143EA014306FB08F1E2
:1003E800994204FA02F409D9FB1806F1FF3C80F09F
:1003F8008D80994240F28A80023E3B445B1A81B26A
:10040800B3FBFEF00EFB103341EA034100FB08F397
:100418008B4207D9791800F1FF3C73D28B4271D90E
:1004280002383944CB1A40EA064678E7C6F1200C70
:1004380003FA06F422FA0CF31C4320FA0CF701FA2B
:1004480006F34FEA144E21FA0CF11F433B0CB1FBA3
:10045800FEF91FFA84F80EFB191143EA014109FB62
:1004680008FA8A4502FA06F200FA06F308D9611872
:1004780009F1FF3048D28A4546D9A9F10209214439
:10048800A1EB0A01BFB2B1FBFEF00EFB101147EA67
:10049800014700FB08F8B84507D9E71900F1FF3113
:1004A8002ED2B8452CD90238274440EA0940A7EB98
:1004B8000807A0FB02894F45C64649461AD317D0FC
:1004C8005DB1B3EB0E0267EB010707FA0CFCF240D3
:1004D8004CEA0202F740C5E9002700263146BDE88C
:1004E800F0872E4628460BE70646E9E61846FDE65D
:1004F8004345E5D2B8EB020E69EB04010138DFE7AA
:100508000846D2E760468DE78146B9E7664675E753
:1005180030464AE7ACF1020C394413E702383C4450
:1005280024E700BF704700BF80B500AF00F044FD6E
:1005380000F040F800F0F2F900F0D0F800F042F9CD
:1005480000F07EF900F0BAF900F01AF905F00EF89B
:100558004FF47F0004F0A3FE04F0ACFF114804F050
:10056800A5FE4FF6FF7004F09CFE142250210E48A1
:1005780005F00EFA322250210C4805F009FA04F071
:1005880039FE012204210A4801F0A4FBC82000F02A
:1005980079FD00220421064801F09CFBC82000F0E8
:1005A80071FDEEE77CD0000830CC000838CC00089C
:1005B8000000024080B5B8B000AF07F1AC033422A8
:1005C800002118460CF01CFB07F1980300221A6062
:1005D8005A609A60DA601A6107F1080390220021D4
:1005E80018460CF00DFB3B4B1B6C3A4A43F080530A
:1005F8001364384B1B6C03F080537B607B68364B6D
:100608001B68354A43F440431360334B1B6803F4BB
:1006180040433B603B680123C7F8AC304FF480335C
:10062800C7F8B0300223C7F8C4304FF48003C7F8C6
:10063800C8301923C7F8CC304FF4D873C7F8D03076
:100648000223C7F8D4300223C7F8D8300223C7F8EA
:10065800DC3007F1AC03184601F0A6FB0346002B7B
:1006680001D000F08BFA01F04FFB0346002B01D0BC
:1006780000F084FA0F23C7F898300223C7F89C309B
:100688000023C7F8A0304FF4A053C7F8A4304FF4A4
:100698008053C7F8A83007F198030721184601F0DE
:1006A80031FE0346002B01D000F068FA4FF4806356
:1006B800BB600023FB6507F10803184601F0F8FF4B
:1006C8000346002B01D000F059FA00BFE037BD46C1
:1006D80080BD00BF003802400070004080B584B083
:1006E80000AF3B4600221A605A609A60DA60214BDC
:1006F800214A1A601F4B4FF480325A601D4B00226A
:100708009A601C4B00221A611A4B00229A61194BFD
:10071800002283F82020174B0022DA62154B174A73
:100728009A62144B0022DA60124B0122DA61114BF3
:10073800002283F830200F4B01225A610D4800F047
:10074800C5FC0346002B01D000F018FA05233B60D6
:1007580001237B600023BB603B461946054800F037
:10076800F9FC0346002B01D000F008FA00BF10374F
:10077800BD4680BD8CD80120002001400100000F3B
:1007880080B500AF0D4B0E4A1A600C4B00221A714F
:100798000A4B00225A71094B00225A61074B00226A
:1007A8009A61064B01221A62044800F0FDFF0346D5
:1007B800002B01D000F0E2F900BF80BD80D70120F6
:1007C8000030024080B500AF1B4B1C4A1A601A4B20
:1007D8004FF482725A60184B00229A60164B4FF4FD
:1007E800E062DA60144B00221A61134B00225A614E
:1007F800114B4FF400729A610F4B0022DA610E4BD5
:1008080000221A620C4B00225A620B4B00229A6299
:10081800094B0722DA62084B00221A63064B0822AA
:100828005A63054802F06CFB0346002B01D000F028
:10083800A5F900BF80BD00BF1CD7012000380040CB
:1008480080B500AF1B4B1C4A1A601A4B4FF48272DA
:100858005A60184B00229A60164B4FF4E062DA6037
:10086800144B00221A61134B00225A61114B4FF4AA
:1008780000729A610F4B0022DA610E4B00221A6255
:100888000C4B00225A620B4B00229A62094B07223A
:10089800DA62084B00221A63064B08225A6305489D
:1008A80002F02EFB0346002B01D000F067F900BFD1
:1008B80080BD00BFA4D70120003C004080B500AF38
:1008C800144B154A1A60134B4FF4E1325A60114B1E
:1008D80000229A600F4B0022DA600E4B00221A6148
:1008E8000C4B0C225A610B4B00229A61094B0022D7
:1008F800DA61084B00221A62064B00225A62054848
:1009080003F012FA0346002B01D000F037F900BFBC
:1009180080BD00BF08D801200050004080B58EB0CF
:1009280000AF07F1240300221A605A609A60DA6067
:100938001A61894B1B6B884A43F010031363864B7B
:100948001B6B03F010033B623B6A834B1B6B824AB1
:1009580043F002031363804B1B6B03F00203FB613C
:10096800FB697D4B1B6B7C4A43F0010313637A4B95
:100978001B6B03F00103BB61BB69774B1B6B764AAA
:1009880043F004031363744B1B6B03F004037B6194
:100998007B69714B1B6B704A43F4807313636E4B16
:1009A8001B6B03F480733B613B696B4B1B6B6A4A9F
:1009B80043F008031363684B1B6B03F00803FB60E9
:1009C800FB68654B1B6B644A43F080031363624BFF
:1009D8001B6B03F08003BB60BB685F4B1B6B5E4AFD
:1009E80043F0200313635C4B1B6B03F020037B6015
:1009F8007B68594B1B6B584A43F040031363564BB3
:100A08001B6B03F040033B603B68002240F201612E
:100A1800524801F05FF900224FF40051504801F0AC
:100A280059F9002240214F4801F054F90022802151
:100A38004D4801F04FF9002207214C4801F04AF9CE
:100A480008237B620023BB620023FB6207F12403B7
:100A58001946474800F092FF4CF2C3337B620023EB
:100A6800BB620023FB6207F124031946414800F0EA
:100A780085FF40F201637B620123BB620023FB62B6
:100A880000233B6307F124031946344800F076FF3E
:100A98004FF400537B620123BB620023FB620023F7
:100AA8003B6307F1240319462D4800F067FF4FF414
:100AB80020737B620023BB620023FB6207F12403DF
:100AC8001946284800F05AFF40237B620123BB6285
:100AD8000023FB6200233B6307F1240319462148E6
:100AE80000F04CFF80237B620123BB620023FB6282
:100AF80000233B6307F1240319461B4800F03EFF1F
:100B080008237B620023BB620023FB6207F12403F6
:100B18001946194800F032FF4FF480637B620023C6
:100B2800BB620023FB6207F1240319460C4800F05E
:100B380025FF07237B620123BB620023FB6200239E
:100B48003B6307F124031946084800F017FF00BF6C
:100B58003837BD4680BD00BF003802400020024043
:100B6800001C02400008024000140240000002403D
:100B780000100240000402400018024080B400AF98
:100B880072B600BFFEE7000080B483B000AF0F4B21
:100B98001B6C0E4A43F0805313640C4B1B6C03F020
:100BA80080537B607B68094B5B6C084A43F4804345
:100BB8005364064B5B6C03F480433B603B6800BFA7
:100BC8000C37BD465DF8047B704700BF0038024013
:100BD80080B58AB000AF786007F1140300221A606C
:100BE8005A609A60DA601A617B681B68214A9342EE
:100BF8003BD1214B5B6C204A43F4807353641E4BFA
:100C08005B6C03F480733B613B691B4B1B6B1A4A9B
:100C180043F004031363184B1B6B03F00403FB60DE
:100C2800FB68154B1B6B144A43F001031363124B0B
:100C38001B6B03F00103BB60BB6803237B610323C9
:100C4800BB610023FB6107F1140319460B4800F050
:100C580095FEA8237B610323BB610023FB6107F199
:100C680014031946064800F089FE00BF2837BD4620
:100C780080BD00BF0020014000380240000802404B
:100C88000000024080B485B000AF78607B681B68C4
:100C98000A4A93420BD10A4B1B6B094A43F480530F
:100CA8001363074B1B6B03F48053FB60FB6800BFA7
:100CB8001437BD465DF8047B704700BF0030024022
:100CC8000038024080B58EB000AF786007F1240389
:100CD80000221A605A609A60DA601A617B681B68A1
:100CE8004A4A934244D14A4B1B6C494A43F48043D5
:100CF8001364474B1B6C03F480433B623B6A444BD1
:100D08001B6B434A43F480731363414B1B6B03F41F
:100D18008073FB61FB693E4B1B6B3D4A43F0080344
:100D280013633B4B1B6B03F00803BB61BB690C23CC
:100D38007B620223BB620023FB6203233B63052320
:100D48007B6307F124031946324800F017FE082395
:100D58007B620223BB620023FB6203233B63052300
:100D68007B6307F1240319462B4800F007FE49E08E
:100D78007B681B68294A934244D1254B1B6C244A43
:100D880043F400431364224B1B6C03F400437B6160
:100D98007B691F4B1B6B1E4A43F0020313631C4BFA
:100DA8001B6B03F002033B613B69194B1B6B184A31
:100DB80043F004031363164B1B6B03F00403FB603F
:100DC800FB6820237B620223BB620023FB620323B0
:100DD8003B6306237B6307F124031946104800F0A0
:100DE800CDFD4FF440637B620223BB620023FB62AC
:100DF80003233B6306237B6307F124031946094851
:100E080000F0BCFD00BF3837BD4680BD003800404B
:100E18000038024000200240000C0240003C004024
:100E2800000402400008024080B58AB000AF786034
:100E380007F1140300221A605A609A60DA601A6196
:100E48007B681B68254A934244D1254B1B6C244A76
:100E580043F480131364224B1B6C03F480133B612F
:100E68003B691F4B1B6B1E4A43F0080313631C4B63
:100E78001B6B03F00803FB60FB68194B1B6B184ADC
:100E880043F002031363164B1B6B03F00203BB60B2
:100E9800BB6804237B610223BB610023FB6103233E
:100EA8003B6208237B6207F1140319460D4800F0E2
:100EB80065FD4FF400537B610223BB610023FB6196
:100EC80003233B6208237B6207F114031946064893
:100ED80000F054FD00BF2837BD4680BD00500040DB
:100EE80000380240000C02400004024080B400AF09
:100EF800FEE780B400AFFEE780B400AFFEE780B441
:100F080000AFFEE780B400AFFEE780B400AF00BFDB
:100F1800BD465DF8047B704780B400AF00BFBD4696
:100F28005DF8047B704780B400AF00BFBD465DF834
:100F3800047B704780B500AF00F084F800BF80BD27
:100F480080B400AF064BD3F88830054A43F47003E9
:100F5800C2F8883000BFBD465DF8047B704700BF0B
:100F680000ED00E0DFF834D00D480E490E4A0023AA
:100F780002E0D458C4500433C4188C42F9D30B4A45
:100F88000B4C002301E013600432A242FBD3FFF7AD
:100F9800D7FF0BF0E9FDFFF7C7FA704700000820FC
:100FA800000000206C00002058EA00086C000020B7
:100FB80088DA0120FEE7000080B500AF084B1B6807
:100FC800074A43F400731360032000F0B9FB0F20B5
:100FD80000F008F8FFF7D8FD0023184680BD00BFD1
:100FE800003C024080B582B000AF7860124B1A68AE
:100FF800124B1B7819464FF47A73B3FBF1F3B2FB2B
:10100800F3F3184600F0C3FB0346002B01D001237D
:101018000EE07B680F2B0AD8002279684FF0FF306A
:1010280000F099FB064A7B681360002300E0012367
:1010380018460837BD4680BD6000002068000020C3
:101048006400002080B400AF064B1B781A46064B9C
:101058001B681344044A136000BFBD465DF8047B57
:10106800704700BF68000020D4D8012080B400AFCA
:10107800034B1B681846BD465DF8047B704700BFEC
:10108800D4D8012080B584B000AF7860FFF7EEFFB8
:10109800B8607B68FB60FB68B3F1FF3F05D00A4B83
:1010A8001B781A46FB681344FB6000BFFFF7DEFF9E
:1010B8000246BB68D31AFA689A42F7D800BF00BF45
:1010C8001037BD4680BD00BF6800002080B584B0E1
:1010D80000AF78600023FB737B68002B01D10123EC
:1010E80031E07B681B6C002B09D17868FFF770FD35
:1010F8007B6800225A647B68002283F83C207B6866
:101108001B6C03F01003002B16D17B681A6C104B74
:10111800134043F002027B681A64786800F064F9AF
:101128007B6800225A647B681B6C23F0030343F03E
:1011380001027B681A6401E00123FB737B680022CB
:1011480083F83C20FB7B18461037BD4680BD00BFA6
:10115800FDEEFFFF80B485B000AF786039600023F2
:10116800FB607B6893F83C30012B01D102232AE114
:101178007B68012283F83C203B681B68092B3AD91D
:101188003B681B68B3F1004F35D07B681B68D96892
:101198003B681B689BB21A4613465B0013441E3B10
:1011A800072202FA03F3DA437B681B680A40DA6015
:1011B8003B681B68874A93420AD17B681B68D968D9
:1011C8003B689B681A067B681B680A43DA6035E04F
:1011D8007B681B68D9683B689A683B681B689BB248
:1011E800184603465B0003441E3B9A407B681B6815
:1011F8000A43DA6022E07B681B6819693B681B6850
:101208009BB21A4613465B001344072202FA03F303
:10121800DA437B681B680A401A617B681B68196996
:101228003B689A683B681B689BB2184603465B009C
:1012380003449A407B681B680A431A613B685B68F1
:10124800062B24D87B681B68596B3B685A68134681
:101258009B001344053B1F2202FA03F3DA437B6821
:101268001B680A405A637B681B68596B3B681B689C
:101278009BB218463B685A6813469B001344053BCB
:1012880000FA03F27B681B680A435A634CE03B6828
:101298005B680C2B24D87B681B68196B3B685A6801
:1012A80013469B001344233B1F2202FA03F3DA433D
:1012B8007B681B680A401A637B681B68196B3B686C
:1012C8001B689BB218463B685A6813469B00134438
:1012D800233B00FA03F27B681B680A431A6323E086
:1012E8007B681B68D96A3B685A6813469B0013449D
:1012F800413B1F2202FA03F3DA437B681B680A406A
:10130800DA627B681B68D96A3B681B689BB218461F
:101318003B685A6813469B001344413B00FA03F2AA
:101328007B681B680A43DA627B681B682A4A934217
:101338000AD13B681B68B3F1004F05D1274B5B68A6
:10134800264A23F4400353607B681B68224A934271
:1013580009D13B681B68122B05D1204B5B681F4ADB
:1013680043F4800353607B681B681B4A934225D172
:101378003B681B68174A934203D03B681B68112BD4
:101388001CD1164B5B68154A43F4000353603B6855
:101398001B68104A934211D1114B1B68114AA2FBDA
:1013A80003239A0C13469B0013445B00FB6002E086
:1013B800FB68013BFB60FB68002BF9D17B680022CE
:1013C80083F83C20002318461437BD465DF8047B9B
:1013D800704700BF120000100020014000230140A8
:1013E8006000002083DE1B4380B483B000AF7860C8
:1013F800784B5B68774A23F440335360754B5A68DF
:101408007B685B68734913434B607B681B685A6849
:101418007B681B6822F480725A607B681B68596875
:101428007B681B691A027B681B680A435A607B68E1
:101438001B685A687B681B6822F040725A607B6898
:101448001B6859687B689A687B681B680A435A60FE
:101458007B681B689A687B681B6822F400629A6044
:101468007B681B6899687B68DA687B681B680A4335
:101478009A607B689B6A584A934222D07B681B68B3
:101488009A687B681B6822F070629A607B681B68A8
:1014980099687B689A6A7B681B680A439A607B68CC
:1014A8001B689A687B681B6822F040529A607B68C8
:1014B8001B6899687B68DA6A7B681B680A439A60CC
:1014C8000FE07B681B689A687B681B6822F0706273
:1014D8009A607B681B689A687B681B6822F0405298
:1014E8009A607B681B689A687B681B6822F0020216
:1014F8009A607B681B6899687B689B695A007B685F
:101508001B680A439A607B6893F82030002B1BD035
:101518007B681B685A687B681B6842F400625A60E3
:101528007B681B685A687B681B6822F460425A60B3
:101538007B681B6859687B685B6A013B5A037B6858
:101548001B680A435A6007E07B681B685A687B6817
:101558001B6822F400625A607B681B68DA6A7B6841
:101568001B6822F47002DA627B681B68D96A7B68A0
:10157800DB69013B1A057B681B680A43DA627B68F2
:101588001B689A687B681B6822F400729A607B6803
:101598001B6899687B6893F830305A027B681B682F
:1015A8000A439A607B681B689A687B681B6822F408
:1015B80080629A607B681B6899687B685B699A029D
:1015C8007B681B680A439A6000BF0C37BD465DF80C
:1015D800047B7047002301400100000F80B485B0F0
:1015E80000AF78607B6803F00703FB600B4BDB6898
:1015F800BB60BA684FF6FF031340BB60FB681A0272
:10160800BB681A43064B1343BB60044ABB68D360EC
:1016180000BF1437BD465DF8047B704700ED00E05D
:101628000000FA0580B400AF044BDB681B0A03F026
:1016380007031846BD465DF8047B704700ED00E0DF
:1016480080B483B000AF03463960FB7197F9073067
:10165800002B0ADB3B68DAB20C4997F90730120114
:10166800D2B20B4483F800230AE03B68DAB2084997
:10167800FB7903F00F03043B1201D2B20B441A7634
:1016880000BF0C37BD465DF8047B704700E100E001
:1016980000ED00E080B489B000AFF860B9607A600E
:1016A800FB6803F00703FB61FB69C3F10703042B25
:1016B80028BF0423BB61FB690433062B02D9FB69ED
:1016C800033B00E000237B614FF0FF32BB6902FA65
:1016D80003F3DA43BB681A407B699A404FF0FF3145
:1016E8007B6901FA03F3D9437B680B40134318461F
:1016F8002437BD465DF8047B7047000080B582B092
:1017080000AF78607B68013BB3F1807F01D3012390
:101718000FE00A4A7B68013B53600F214FF0FF300E
:10172800FFF78EFF054B00229A60044B07221A60D0
:10173800002318460837BD4680BD00BF10E000E012
:1017480080B582B000AF78607868FFF747FF00BFC8
:101758000837BD4680BD80B586B000AF0346B96086
:101768007A60FB7300237B61FFF75CFF78617A681E
:10177800B9687869FFF78EFF024697F90F3011466E
:101788001846FFF75DFF00BF1837BD4680BD80B51E
:1017980082B000AF78607868FFF7B0FF034618465C
:1017A8000837BD4680BD000080B582B000AF7860C4
:1017B8007B68002B01D1012354E07B685B7FDBB29F
:1017C800002B05D17B6800221A777868FFF75AFA50
:1017D8007B6802225A777B681B79002B0CD17B68C7
:1017E8001B68224A5A617B681B689A687B681B6879
:1017F80022F018029A600CE07B6899687B68DB68C5
:101808001A46786800F034F80346002B01D001230B
:1018180028E07B685B79002B05D17B681B684FF05B
:10182800FF321A6104E07B681B687A6812691A61E2
:101838007B681B689B6823F060017B685A697B683A
:101848001B680A439A607B681B689B6823F08001C9
:101858007B689A697B681B680A439A607B680122E7
:101868005A77002318460837BD4680BDB71DC10406
:1018780080B487B000AFF860B9607A600023FB7568
:101888001F233B6100BF3B695A1E3A61002B09D0F8
:101898003B6903F01F03BA6822FA03F303F001035C
:1018A800002BF0D07B68182B46D801A252F823F001
:1018B8004719000841190008411900084119000892
:1018C8004119000841190008411900084119000888
:1018D8003519000841190008411900084119000884
:1018E8004119000841190008411900084119000868
:1018F8002919000841190008411900084119000870
:101908004119000841190008411900084119000847
:101918001D1900083B69062B13D90123FB7510E03C
:101928003B69072B0FD90123FB750CE03B690F2B93
:101938000BD90123FB7508E00123FB7506E000BF06
:1019480004E000BF02E000BF00E000BFFB7D002B09
:101958000DD1FB681B68BA685A61FB681B689B68F5
:1019680023F01801FB681B687A680A439A60FB7DBC
:1019780018461C37BD465DF8047B704780B489B0B3
:1019880000AF786039600023FB6100237B6100238E
:101998003B610023BB610023FB6175E10122FB6908
:1019A80002FA03F37B613B681B687A6913403B6169
:1019B8003A697B699A4240F064813B685B68012B15
:1019C8000BD03B685B68022B07D03B685B68112B28
:1019D80003D03B685B68122B30D17B689B68BB6186
:1019E800FB695B00032202FA03F3DB43BA69134085
:1019F800BB613B68DA68FB695B0002FA03F3BA690A
:101A08001343BB617B68BA699A607B685B68BB619A
:101A18000122FB6902FA03F3DB43BA691340BB6195
:101A28003B685B681B0903F00102FB6902FA03F3D8
:101A3800BA691343BB617B68BA695A607B68DB6823
:101A4800BB61FB695B00032202FA03F3DB43BA695B
:101A58001340BB613B689A68FB695B0002FA03F3B9
:101A6800BA691343BB617B68BA69DA603B685B6833
:101A7800022B03D03B685B68122B23D1FB69DA0881
:101A88007B68083253F82230BB61FB6903F0070317
:101A98009B000F2202FA03F3DB43BA691340BB61D0
:101AA8003B681A69FB6903F007039B0002FA03F31A
:101AB800BA691343BB61FB69DA087B680832B96904
:101AC80043F822107B681B68BB61FB695B0003223B
:101AD80002FA03F3DB43BA691340BB613B685B68F6
:101AE80003F00302FB695B0002FA03F3BA691343CC
:101AF800BB617B68BA691A603B685B6803F0805316
:101B0800002B00F0BE80664B5B6C654A43F4804353
:101B18005364634B5B6C03F48043FB60FB68614A6E
:101B2800FB699B08023352F82330BB61FB6903F061
:101B380003039B000F2202FA03F3DB43BA69134045
:101B4800BB617B68584A934237D07B68574A9342B7
:101B580031D07B68564A93422BD07B68554A9342D2
:101B680025D07B68544A93421FD07B68534A9342DE
:101B780019D07B68524A934213D07B68514A9342EA
:101B88000DD07B68504A934207D07B684F4A9342F6
:101B980001D1092312E00A2310E008230EE00723ED
:101BA8000CE006230AE0052308E0042306E00323EB
:101BB80004E0022302E0012300E00023FA6902F0B6
:101BC800030292009340BA691343BB613549FB692C
:101BD8009B080233BA6941F823203D4B1B68BB615F
:101BE8003B69DB43BA691340BB613B685B6803F43C
:101BF8008033002B03D0BA693B691343BB61344A75
:101C0800BB691360324B5B68BB613B69DB43BA69F4
:101C18001340BB613B685B6803F40033002B03D0BF
:101C2800BA693B691343BB61294ABB695360284BB6
:101C38009B68BB613B69DB43BA691340BB613B6886
:101C48005B6803F48013002B03D0BA693B69134324
:101C5800BB611F4ABB6993601D4BDB68BB613B6975
:101C6800DB43BA691340BB613B685B6803F400134C
:101C7800002B03D0BA693B691343BB61144ABB69A3
:101C8800D360FB690133FB61FB690F2B7FF686AEDE
:101C980000BF00BF2437BD465DF8047B704700BF16
:101CA80000380240003801400000024000040240B1
:101CB80000080240000C02400010024000140240DC
:101CC80000180240001C024000200240002402408C
:101CD800003C014080B483B000AF78600B467B8045
:101CE80013467B707B78002B03D07A887B689A61D7
:101CF80003E07B881A047B689A6100BF0C37BD46F5
:101D08005DF8047B7047000080B582B000AF002307
:101D18007B60234B1B6C224A43F080531364204B97
:101D28001B6C03F080533B603B681E4B1B681D4ACD
:101D380043F480331360FFF799F9786009E0FFF7FF
:101D480095F902467B68D31AB3F57A7F01D9032344
:101D580022E0144B5B6803F48033B3F5803FEED187
:101D6800104B1B680F4A43F400331360FFF77EF9EA
:101D7800786009E0FFF77AF902467B68D31AB3F571
:101D88007A7F01D9032307E0064B5B6803F400332D
:101D9800B3F5003FEED1002318460837BD4680BD95
:101DA800003802400070004080B586B000AF78600F
:101DB8000023FB757B68002B01D101239BE27B6824
:101DC8001B6803F00103002B00F08780964B9B688B
:101DD80003F00C03042B0CD0934B9B6803F00C030B
:101DE800082B12D1904B5B6803F48003B3F5800F86
:101DF8000BD18D4B1B6803F40033002B6CD07B6830
:101E08005B68002B68D1012375E27B685B68B3F5DA
:101E1800803F06D1844B1B68834A43F480331360A8
:101E28002EE07B685B68002B0CD17F4B1B687E4AD9
:101E380023F4803313607C4B1B687B4A23F4802394
:101E480013601DE07B685B68B3F5A02F0CD1764B5F
:101E58001B68754A43F480231360734B1B68724AEE
:101E680043F4803313600BE06F4B1B686E4A23F416
:101E7800803313606C4B1B686B4A23F48023136018
:101E88007B685B68002B13D0FFF7F0F8386108E037
:101E9800FFF7ECF802463B69D31A642B01D90323F8
:101EA80029E2614B1B6803F40033002BF0D014E0E7
:101EB800FFF7DCF8386108E0FFF7D8F802463B691D
:101EC800D31A642B01D9032315E2574B1B6803F47B
:101ED8000033002BF0D100E000BF7B681B6803F0E3
:101EE8000203002B69D0504B9B6803F00C03002BB6
:101EF8000BD04D4B9B6803F00C03082B1CD14A4BAD
:101F08005B6803F48003002B16D1474B1B6803F072
:101F18000203002B05D07B68DB68012B01D001236D
:101F2800E9E1414B1B6823F0F8027B681B69DB0081
:101F38003D4913430B6040E07B68DB68002B23D0EE
:101F4800394B1B68384A43F001031360FFF78EF8DA
:101F5800386108E0FFF78AF802463B69D31A022B7A
:101F680001D90323C7E1304B1B6803F00203002BA0
:101F7800F0D02D4B1B6823F0F8027B681B69DB004F
:101F8800294913430B6018E0274B1B68264A23F0A6
:101F980001031360FFF76AF8386108E0FFF766F895
:101FA80002463B69D31A022B01D90323A3E11E4B36
:101FB8001B6803F00203002BF0D17B681B6803F059
:101FC8000803002B38D07B685B69002B19D0164BAF
:101FD8005B6F154A43F001035367FFF747F8386111
:101FE80008E0FFF743F802463B69D31A022B01D9F0
:101FF800032380E10C4B5B6F03F00203002BF0D04E
:102008001AE0094B5B6F084A23F001035367FFF797
:102018002DF838610AE0FFF729F802463B69D31A20
:10202800022B03D9032366E100380240924B5B6F11
:1020380003F00203002BEED17B681B6803F0040356
:10204800002B00F0A4808C4B1B6C03F08053002BFA
:102058000DD1894B1B6C884A43F080531364864B1F
:102068001B6C03F08053BB60BB680123FB75834B7B
:102078001B6803F48073002B18D1804B1B687F4AC0
:1020880043F480731360FEF7F1FF386108E0FEF750
:10209800EDFF02463B69D31A642B01D903232AE1D9
:1020A800764B1B6803F48073002BF0D07B689B6829
:1020B800012B06D1704B1B6F6F4A43F00103136766
:1020C8002DE07B689B68002B0CD16B4B1B6F6A4A19
:1020D80023F001031367684B1B6F674A23F004035F
:1020E80013671CE07B689B68052B0CD1624B1B6F48
:1020F800614A43F0040313675F4B1B6F5E4A43F06A
:10210800010313670BE05C4B1B6F5B4A23F0010371
:102118001367594B1B6F584A23F0040313677B68F6
:102128009B68002B15D0FEF7A1FF38610AE0FEF787
:102138009DFF02463B69D31A41F28832934201D986
:102148000323D8E04C4B1B6F03F00203002BEED0A7
:1021580014E0FEF78BFF38610AE0FEF787FF0246BE
:102168003B69D31A41F28832934201D90323C2E072
:10217800414B1B6F03F00203002BEED1FB7D012BBB
:1021880005D13D4B1B6C3C4A23F0805313647B689C
:102198009B69002B00F0AE80374B9B6803F00C0363
:1021A800082B6DD07B689B69022B4BD1324B1B6887
:1021B800314A23F080731360FEF758FF386108E056
:1021C800FEF754FF02463B69D31A022B01D90323B9
:1021D80091E0294B1B6803F00073002BF0D17B685A
:1021E800DA697B681B6A1A437B685B6A9B011A433E
:1021F8007B689B6A5B08013B1B041A437B68DB6AAC
:102208001B061A437B681B6B1B071B4913434B6058
:10221800194B1B68184A43F080731360FEF726FFBA
:10222800386108E0FEF722FF02463B69D31A022B09
:1022380001D903235FE0104B1B6803F00073002BE8
:10224800F0D057E00C4B1B680B4A23F080731360E7
:10225800FEF70CFF386108E0FEF708FF02463B690D
:10226800D31A022B01D9032345E0034B1B6803F063
:102278000073002BF0D13DE00038024000700040B0
:102288001F4B5B68FB607B689B69012B30D0FB6848
:1022980003F480027B68DB699A4229D1FB6803F06A
:1022A8003F027B681B6A9A4222D1FA6847F6C073DC
:1022B80013407A68526A9201934219D1FB6803F479
:1022C80040327B689B6A5B08013B1B049A420FD132
:1022D800FB6803F070627B68DB6A1B069A4207D1D1
:1022E800FB6803F0E0427B681B6B1B079A4201D036
:1022F800012300E0002318461837BD4680BD00BF03
:102308000038024080B584B000AF7860396000239F
:10231800FB607B68002B01D10123D0E06A4B1B686E
:1023280003F00F033A689A4210D9674B1B6823F0F1
:102338000F0265493B6813430B60634B1B6803F04E
:102348000F033A689A4201D00123B8E07B681B6802
:1023580003F00203002B20D07B681B6803F0040302
:10236800002B05D0594B9B68584A43F4E0539360BF
:102378007B681B6803F00803002B05D0534B9B6850
:10238800524A43F460439360504B9B6823F0F00239
:102398007B689B684D4913438B607B681B6803F01F
:1023A8000103002B40D07B685B68012B07D1474BAA
:1023B8001B6803F40033002B15D101237FE07B68F1
:1023C8005B68022B07D1414B1B6803F00073002B9D
:1023D80009D1012373E03D4B1B6803F00203002B76
:1023E80001D101236BE0394B9B6823F003027B6822
:1023F8005B68364913438B60FEF738FEF8600AE0E5
:10240800FEF734FE0246FB68D31A41F28832934243
:1024180001D9032353E02D4B9B6803F00C027B6822
:102428005B689B009A42EBD1274B1B6803F00F03B4
:102438003A689A4210D2244B1B6823F00F022249B3
:102448003B6813430B60204B1B6803F00F033A688B
:102458009A4201D0012332E07B681B6803F0040331
:10246800002B08D0194B9B6823F4E0527B68DB688B
:10247800164913438B607B681B6803F00803002B25
:1024880009D0124B9B6823F460427B681B69DB0010
:102498000E4913438B6000F021F802460B4B9B68F2
:1024A8001B0903F00F030A49CB5C22FA03F3094A1C
:1024B8001360094B1B681846FEF794FD0023184665
:1024C8001037BD4680BD00BF003C024000380240C6
:1024D80030EA00086000002064000020B0B584B035
:1024E80000AF002179600021F960002139600021E6
:1024F800B9605249896801F00C0108290DD00829F2
:1025080000F29480002902D0042903D08EE04C4BBD
:10251800BB608EE04B4BBB608BE04849496801F0DB
:102528003F0179604549496801F48001002924D0B8
:1025380042494968890908464FF0000140F2FF14F2
:102548004FF0000500EA040201EA05033D4901FBDA
:1025580003F0002101FB02F144183A49A2FB0101F2
:10256800631819467B681A464FF00003FDF760FEB2
:1025780002460B461346FB604AE0304B5B689B09FA
:102588001A464FF0000340F2FF104FF0000102EA34
:10259800000403EA0105204629464FF000024FF0E7
:1025A80000034B0143EAD063420110461946001B61
:1025B80061EB05014FF000024FF000038B0143EA85
:1025C80090638201121A63EB01034FF000004FF091
:1025D8000001D90041EA5271D00002460B46121997
:1025E80045EB03034FF000004FF00001990241EA68
:1025F8009251900202460B46104619467B681A46CD
:102608004FF00003FDF714FE02460B461346FB602D
:102618000A4B5B681B0C03F0030301335B003B6050
:10262800FA683B68B2FBF3F3BB6002E0044BBB60A3
:1026380000BFBB6818461037BD46B0BD0038024021
:102648000024F40040787D0180B400AF034B1B6880
:102658001846BD465DF8047B704700BF6000002047
:1026680080B500AFFFF7F0FF0246054B9B689B0A59
:1026780003F007030349CB5C22FA03F3184680BD35
:102688000038024040EA000880B500AFFFF7DCFFE1
:102698000246054B9B685B0B03F007030349CB5CC1
:1026A80022FA03F3184680BD0038024040EA0008C9
:1026B80080B588B000AF786000237B6100233B6160
:1026C8000023FB600023FB610023BB617B681B6860
:1026D80003F00103002B12D0694B9B68684A23F46E
:1026E80000039360664B9A687B685B6B644913438D
:1026F8008B607B685B6B002B01D10123FB617B68DE
:102708001B6803F40023002B17D05D4BD3F88C30E3
:1027180023F440127B68DB6B59491343C1F88C30B2
:102728007B68DB6BB3F5801F01D10123FB617B68FC
:10273800DB6B002B01D10123BB617B681B6803F4B1
:102748008013002B17D04E4BD3F88C3023F4400263
:102758007B681B6C4A491343C1F88C307B681B6C3F
:10276800B3F5800F01D10123FB617B681B6C002B43
:1027780001D10123BB617B681B6803F08073002BC8
:1027880001D00123FB617B681B6803F02003002B49
:1027980000F08B803A4B1B6C394A43F0805313642A
:1027A800374B1B6C03F08053BB60BB68354B1B6811
:1027B800344A43F480731360FEF758FC786108E0EC
:1027C800FEF754FC02467B69D31A642B01D9032314
:1027D8008FE32C4B1B6803F48073002BF0D0284B3D
:1027E8001B6F03F440733B613B69002B35D07B685A
:1027F8001B6B03F440733A699A422ED0204B1B6F2F
:1028080023F440733B611E4B1B6F1D4A43F4803316
:1028180013671B4B1B6F1A4A23F480331367184A3C
:102828003B691367164B1B6F03F00103012B14D18F
:10283800FEF71CFC78610AE0FEF718FC02467B698B
:10284800D31A41F28832934201D9032351E30C4B46
:102858001B6F03F00203002BEED07B681B6B03F4A5
:102868004073B3F5407F11D1054B9B6823F4F812F0
:102878007B68196B044B0B40014913438B600BE0D9
:102888000038024000700040FFFCFF0FB34B9B680C
:10289800B24A23F4F8139360B04B1A6F7B681B6B32
:1028A800C3F30B03AD4913430B677B681B6803F045
:1028B8001003002B10D0A94BD3F88C30A74A23F073
:1028C8008073C2F88C30A54BD3F88C207B689B6B47
:1028D800A2491343C1F88C307B681B6803F480431A
:1028E800002B0AD09D4BD3F8903023F440327B68FC
:1028F8005B6E9A491343C1F890307B681B6803F4F8
:102908000043002B0AD0954BD3F8903023F4402293
:102918007B689B6E91491343C1F890307B681B68B4
:1029280003F48033002B0AD08C4BD3F8903023F477
:1029380040127B68DB6E89491343C1F890307B688D
:102948001B6803F40033002B0AD0844BD3F8903073
:1029580023F440027B681B6F80491343C1F8903011
:102968007B681B6803F04003002B0AD07B4BD3F82D
:10297800903023F003027B685B6C78491343C1F8FD
:1029880090307B681B6803F08003002B0AD0734BE0
:10299800D3F8903023F00C027B689B6C6F4913438B
:1029A800C1F890307B681B6803F48073002B0AD051
:1029B8006A4BD3F8903023F030027B68DB6C6749B0
:1029C8001343C1F890307B681B6803F40073002B35
:1029D8000AD0624BD3F8903023F0C0027B681B6D9D
:1029E8005E491343C1F890307B681B6803F4806329
:1029F800002B0AD0594BD3F8903023F440727B68EF
:102A08005B6D56491343C1F890307B681B6803F42B
:102A18000063002B0AD0514BD3F8903023F4406266
:102A28007B689B6D4D491343C1F890307B681B68E8
:102A380003F48053002B0AD0484BD3F8903023F48A
:102A480040527B68DB6D45491343C1F890307B6881
:102A58001B6803F40053002B0AD0404BD3F8903086
:102A680023F440427B681B6E3C491343C1F8903005
:102A78007B681B6803F48003002B0AD0374BD3F81C
:102A8800903023F080627B689B6F34491343C1F810
:102A980090307B681B6803F40013002B11D02F4B78
:102AA800D3F8903023F000627B68DB6F2B49134327
:102AB800C1F890307B68DB6FB3F1006F01D101235F
:102AC800BB617B681B6803F00803002B01D001235E
:102AD800BB617B681B6803F48023002B0AD01F4B63
:102AE800D3F8903023F040727B685B6F1B49134327
:102AF800C1F890307B681B6803F40003002B0BD0EF
:102B0800164BD3F8903023F080527B68D3F880308E
:102B180012491343C1F890307B681B6803F0806347
:102B2800002B0BD00D4BD3F8903023F000527B686C
:102B3800D3F8843009491343C1F890307B681B6887
:102B480003F00063002B0FD0044BD3F88C3023F034
:102B580000727B68D3F8883002E000BF003802407A
:102B680086491343C1F88C307B681B6803F0805397
:102B7800002B0BD0814BD3F88C3023F080627B681C
:102B8800D3F88C307D491343C1F88C30FB69012B95
:102B980006D07B681B6803F00073002B00F0D6801A
:102BA800764B1B68754A23F080631360FEF75EFA64
:102BB800786108E0FEF75AFA02467B69D31A642B5B
:102BC80001D9032395E16D4B1B6803F00063002BCB
:102BD800F0D17B681B6803F00103002B21D07B68D0
:102BE8005B6B002B1DD1654BD3F884301B0C03F0B5
:102BF80003033B61614BD3F884301B0E03F00F03D2
:102C0800FB607B685B689A013B691B041A43FB689D
:102C18001B061A437B689B681B0758491343C1F876
:102C280084307B681B6803F40023002B04D07B6886
:102C3800DB6BB3F5801F0AD07B681B6803F4801335
:102C4800002B2ED07B681B6CB3F5800F29D14B4B22
:102C5800D3F884301B0C03F003033B61474BD3F8D4
:102C680084301B0F03F00703FB607B685B689A01E5
:102C78003B691B041A437B68DB681B061A43FB6825
:102C88001B073E491343C1F884303C4BD3F88C30C2
:102C980023F01F027B685B6A013B38491343C1F884
:102CA8008C307B681B6803F08073002B1DD0334B7E
:102CB800D3F884301B0E03F00F033B612F4BD3F87E
:102CC80084301B0F03F00703FB607B685B689A0185
:102CD8007B681B691B041A433B691B061A43FB6884
:102CE8001B0726491343C1F884307B681B6803F02F
:102CF8000073002B11D07B685B689A017B681B69A5
:102D08001B041A437B68DB681B061A437B689B68B5
:102D18001B071A491343C1F88430184B1B68174A1C
:102D280043F080631360FEF7A1F9786108E0FEF7CD
:102D38009DF902467B69D31A642B01D90323D8E095
:102D48000E4B1B6803F00063002BF0D0BB69012B0E
:102D580040F0CE80094B1B68084A23F0805313606B
:102D6800FEF784F978610BE0FEF780F902467B698B
:102D7800D31A642B04D90323BBE000BF00380240F8
:102D88005E4B1B6803F00053B3F1005FECD07B6827
:102D98001B6803F40023002B03D07B68DB6B002B3C
:102DA80009D07B681B6803F48013002B2ED07B6846
:102DB8001B6C002B2AD1514BD3F888301B0C03F025
:102DC80003033B614D4BD3F888301B0F03F0070317
:102DD800FB607B685B699A013B691B041A437B684B
:102DE8009B691B061A43FB681B0744491343C1F838
:102DF8008830424BD3F88C3023F4F8527B689B6AB6
:102E0800013B1B023D491343C1F88C307B681B68AA
:102E180003F40013002B22D07B68DB6FB3F1006F43
:102E28001DD1364BD3F888301B0E03F00F033B61DE
:102E3800324BD3F888301B0F03F00703FB607B6825
:102E48005B699A017B681B6A1B041A433B691B0672
:102E58001A43FB681B0729491343C1F888307B686C
:102E68001B6803F00803002B28D0244BD3F88830C4
:102E78001B0E03F00F033B61204BD3F888301B0C6B
:102E880003F00303FB607B685B699A01FB681B0422
:102E98001A433B691B061A437B68DB691B07174902
:102EA8001343C1F88830154BD3F88C3023F44032E3
:102EB8007B68DB6A11491343C1F88C300F4B1B68E0
:102EC8000E4A43F080531360FEF7D0F8786108E0AB
:102ED800FEF7CCF802467B69D31A642B01D9032389
:102EE80007E0064B1B6803F00053B3F1005FEFD116
:102EF800002318462037BD4680BD00BF0038024079
:102F080080B584B000AF78607B68002B01D10123C5
:102F18009DE07B685B6A002B08D17B685B68B3F532
:102F2800827F09D07B680022DA6105E07B68002295
:102F38001A617B6800225A617B6800229A627B686A
:102F480093F85D30DBB2002B06D17B68002283F852
:102F58005C207868FDF7B6FE7B68022283F85D2066
:102F68007B681B681A687B681B6822F040021A603D
:102F78007B68DB68B3F5E06F02D90023FB6002E0F1
:102F88004FF48053FB607B68DB68B3F5706F07D044
:102F98007B68DB68B3F5E06F02D07B6800229A6239
:102FA8007B685B6803F482727B689B6803F4044364
:102FB8001A437B681B6903F002031A437B685B6949
:102FC80003F001031A437B689B6903F400731A43F7
:102FD8007B68DB6903F038031A437B681B6A03F0DC
:102FE800800342EA03017B689B6A03F400527B6812
:102FF8001B680A431A607B689B691B0C03F0040278
:103008007B685B6A03F010031A437B685B6B03F011
:1030180008031A437B68DB6803F4706342EA030120
:10302800FB6803F480527B681B680A435A607B681C
:103038001B68DA697B681B6822F40062DA617B68C6
:1030480000221A667B68012283F85D200023184657
:103058001037BD4680BD80B588B000AFF860B96054
:103068003B601346FB800023FB77FB6893F85C30DA
:10307800012B01D1022358E1FB68012283F85C206F
:10308800FDF7F4FFB861FB88FB82FB6893F85D30BD
:10309800DBB2012B02D00223FB773DE1BB68002B9A
:1030A80002D0FB88002B02D10123FB7734E1FB68B7
:1030B800032283F85D20FB6800221A66FB68BA6861
:1030C8009A63FB68FA889A87FB68FA88DA87FB684C
:1030D80000221A64FB680022A3F84420FB6800223F
:1030E800A3F84620FB6800221A65FB680022DA6410
:1030F800FB689B68B3F5004F0FD1FB681B681A6823
:10310800FB681B6822F040021A60FB681B681A689B
:10311800FB681B6842F480421A60FB681B681B68E6
:1031280003F04003402B07D0FB681B681A68FB6854
:103138001B6842F040021A60FB68DB68B3F5E06F79
:103148004BD9FB685B68002B02D0FB8A012B3ED170
:10315800FB689B6B1A88FB681B68DA60FB689B6BD3
:103168009A1CFB689A63FB68DB8F9BB2013B9AB29F
:10317800FB68DA872BE0FB681B689B6803F0020397
:10318800022B12D1FB689B6B1A88FB681B68DA60FC
:10319800FB689B6B9A1CFB689A63FB68DB8F9BB28E
:1031A800013B9AB2FB68DA8711E0FDF75FFF024640
:1031B800BB69D31A3A689A4203D83B68B3F1FF3F18
:1031C80002D13B68002B02D10323FB77A4E0FB6804
:1031D800DB8F9BB2002BCED17CE0FB685B68002BB9
:1031E80002D0FB8A012B70D1FB68DB8F9BB2012BCD
:1031F80012D9FB689B6B1A88FB681B68DA60FB684E
:103208009B6B9A1CFB689A63FB68DB8F9BB2023B43
:103218009AB2FB68DA8758E0FB689A6BFB681B6810
:103228000C3312781A70FB689B6B5A1CFB689A6304
:10323800FB68DB8F9BB2013B9AB2FB68DA8744E0FC
:10324800FB681B689B6803F00203022B2BD1FB6809
:10325800DB8F9BB2012B12D9FB689B6B1A88FB682A
:103268001B68DA60FB689B6B9A1CFB689A63FB68B7
:10327800DB8F9BB2023B9AB2FB68DA8725E0FB68DA
:103288009A6BFB681B680C3312781A70FB689B6B8F
:103298005A1CFB689A63FB68DB8F9BB2013B9AB2AE
:1032A800FB68DA8711E0FDF7E1FE0246BB69D31A35
:1032B8003A689A4203D83B68B3F1FF3F02D13B68B2
:1032C800002B02D10323FB7726E0FB68DB8F9BB240
:1032D800002BB5D1BA693968F86800F0DFFC0346FD
:1032E800002B02D0FB6820221A66FB689B68002B23
:1032F8000AD100233B61FB681B68DB683B61FB6804
:103308001B689B683B613B69FB681B6E002B02D006
:103318000123FB7700E000BFFB68012283F85D20F2
:10332800FB68002283F85C20FB7F18462037BD46E7
:1033380080BD80B588B002AFF860B9603B601346C5
:10334800FB800023FB75FB685B68B3F5827F12D1B5
:10335800FB689B68002B0ED1FB68042283F85D2074
:10336800FA883B6800931346BA68B968F86800F0B1
:1033780010F9034609E1FB6893F85C30012B01D191
:10338800022302E1FB68012283F85C20FDF76EFE50
:103398003861FB6893F85D30DBB2012B02D0022361
:1033A800FB75E9E0BB68002B02D0FB88002B02D13B
:1033B8000123FB75E0E0FB68042283F85D20FB68CD
:1033C80000221A66FB68BA681A64FB68FA88A3F8D0
:1033D8004420FB68FA88A3F84620FB6800229A6319
:1033E800FB6800229A87FB680022DA87FB680022C4
:1033F800DA64FB6800221A65FB68DB68B3F5E06FE6
:1034080008D9FB681B685A68FB681B6822F480525D
:103418005A6007E0FB681B685A68FB681B6842F43F
:1034280080525A60FB689B68B3F5004F0FD1FB6868
:103438001B681A68FB681B6822F040021A60FB6868
:103448001B681A68FB681B6822F480421A60FB68D4
:103458001B681B6803F04003402B07D0FB681B6800
:103468001A68FB681B6842F040021A60FB68DB6858
:10347800B3F5E06F67D830E0FB681B689B6803F022
:103488000103012B17D1FB681B6803F10C02FB68D1
:103498001B6C1278D2B21A70FB681B6C5A1CFB6842
:1034A8001A64FB68B3F846309BB2013B9AB2FB68DA
:1034B800A3F8462011E0FDF7D9FD02463B69D31A6F
:1034C8003A689A4203D83B68B3F1FF3F02D13B68A0
:1034D800002B02D10323FB754EE0FB68B3F846309E
:1034E8009BB2002BC8D134E0FB681B689B6803F0D3
:1034F8000103012B15D1FB681B68DA68FB681B6C9C
:1035080092B21A80FB681B6C9A1CFB681A64FB68F1
:10351800B3F846309BB2013B9AB2FB68A3F8462049
:1035280011E0FDF7A3FD02463B69D31A3A689A42B7
:1035380003D83B68B3F1FF3F02D13B68002B02D1AF
:103548000323FB7518E0FB68B3F846309BB2002BE9
:10355800CAD13A693968F86800F048FB0346002B7D
:1035680002D0FB6820221A66FB681B6E002B02D073
:103578000123FB7500E000BFFB68012283F85D2092
:10358800FB68002283F85C20FB7D18461837BD468F
:1035980080BD80B58AB000AFF860B9607A607B8082
:1035A80001237B62002387F82330FB6893F85C30A3
:1035B800012B01D10223FBE1FB68012283F85C2087
:1035C800FDF754FDF861FB6893F85D30FB76FB6806
:1035D8005B687B617B887B827B883B82FB7E012BDF
:1035E8000ED07B69B3F5827F06D1FB689B68002B00
:1035F80002D1FB7E042B03D0022387F82330CDE1D0
:10360800BB68002B05D07B68002B02D07B88002B81
:1036180003D1012387F82330C0E1FB6893F85D30BC
:10362800DBB2042B03D0FB68052283F85D20FB681E
:1036380000221A66FB687A681A64FB687A88A3F81D
:103648004620FB687A88A3F84420FB68BA689A6326
:10365800FB687A88DA87FB687A889A87FB68002291
:10366800DA64FB6800221A65FB68DB68B3F5E06F73
:1036780002D83B8A012B08D9FB681B685A68FB688B
:103688001B6822F480525A6007E0FB681B685A687E
:10369800FB681B6842F480525A60FB681B681B6811
:1036A80003F04003402B07D0FB681B681A68FB68CF
:1036B8001B6842F040021A60FB68DB68B3F5E06FF4
:1036C8007CD9FB685B68002B02D07B8A012B69D10F
:1036D800FB689B6B1A88FB681B68DA60FB689B6B4E
:1036E8009A1CFB689A63FB68DB8F9BB2013B9AB21A
:1036F800FB68DA8756E0FB681B689B6803F00203E7
:10370800022B1BD1FB68DB8F9BB2002B16D07B6A88
:10371800012B13D1FB689B6B1A88FB681B68DA6066
:10372800FB689B6B9A1CFB689A63FB68DB8F9BB2F8
:10373800013B9AB2FB68DA8700237B62FB681B684F
:103748009B6803F00103012B1CD1FB68B3F84630DA
:103758009BB2002B16D0FB681B68DA68FB681B6CF1
:1037680092B21A80FB681B6C9A1CFB681A64FB688F
:10377800B3F846309BB2013B9AB2FB68A3F84620E7
:1037880001237B62FDF772FC0246FB69D31A3A6B90
:103798009A4207D83B6BB3F1FF3F03D0032387F866
:1037A8002330FBE0FB68DB8F9BB2002BA3D1FB68C7
:1037B800B3F846309BB2002B9DD1DFE0FB685B6815
:1037C800002B03D07B8A012B40F0CB80FB68DB8F7A
:1037D8009BB2012B12D9FB689B6B1A88FB681B688C
:1037E800DA60FB689B6B9A1CFB689A63FB68DB8F4B
:1037F8009BB2023B9AB2FB68DA87B2E0FB689A6B2D
:10380800FB681B680C3312781A70FB689B6B5A1C98
:10381800FB689A63FB68DB8F9BB2013B9AB2FB683B
:10382800DA879EE0FB681B689B6803F00203022BA3
:1038380034D1FB68DB8F9BB2002B2FD07B6A012B26
:103848002CD1FB68DB8F9BB2012B12D9FB689B6BD9
:103858001A88FB681B68DA60FB689B6B9A1CFB681C
:103868009A63FB68DB8F9BB2023B9AB2FB68DA87EC
:1038780012E0FB689A6BFB681B680C3312781A70AD
:10388800FB689B6B5A1CFB689A63FB68DB8F9BB2D7
:10389800013B9AB2FB68DA8700237B62FB681B68EE
:1038A8009B6803F00103012B48D1FB68B3F846304D
:1038B8009BB2002B42D0FB68B3F846309BB2012B79
:1038C80023D9FB681B68DA68FB681B6C92B21A8004
:1038D800FB681B6C9A1CFB681A64FB68B3F84630DB
:1038E8009BB2023B9AB2FB68A3F84620FB68B3F888
:1038F80046309BB2012B1FD8FB681B685A68FB68CF
:103908001B6842F480525A6016E0FB681B6803F19A
:103918000C02FB681B6C1278D2B21A70FB681B6C25
:103928005A1CFB681A64FB68B3F846309BB2013B2B
:103938009AB2FB68A3F8462001237B62FDF796FB49
:103948000246FB69D31A3A6B9A4203D83B6BB3F130
:10395800FF3F02D13B6B002B03D1032387F82330B1
:103968001CE0FB68DB8F9BB2002B7FF45BAFFB682E
:10397800B3F846309BB2002B7FF454AFFA69396B29
:10398800F86800F08BF90346002B06D0012387F86E
:103998002330FB6820221A6600E000BFFB68012282
:1039A80083F85D20FB68002283F85C2097F82330B9
:1039B80018462837BD4680BD80B588B000AFF8608E
:1039C800B9603B601346FB71FDF750FB0246BB6ACA
:1039D8009B1A3A681344FB61FDF748FBB861394B01
:1039E8001B685B011B0DFA6902FB03F37B6154E062
:1039F8003B68B3F1FF3F50D0FDF738FB0246BB6987
:103A0800D31AFA699A4202D9FB69002B3DD1FB68A7
:103A18001B685A68FB681B6822F0E0025A60FB6862
:103A28005B68B3F5827F11D1FB689B68B3F5004FE3
:103A380004D0FB689B68B3F5806F07D1FB681B68EF
:103A48001A68FB681B6822F040021A60FB689B6AD0
:103A5800B3F5005F0FD1FB681B681A68FB681B6829
:103A680022F400521A60FB681B681A68FB681B681E
:103A780042F400521A60FB68012283F85D20FB685B
:103A8800002283F85C20032317E07B69002B01D117
:103A98000023FB617B69013B7B61FB681B689A68BB
:103AA800BB681340BA689A420CBF01230023DBB2FB
:103AB8001A46FB799A429BD1002318462037BD4607
:103AC80080BD00BF6000002080B588B000AFF860FE
:103AD800B9607A603B60FDF7C9FA0246BB6A9B1A77
:103AE8003A681344FB61FDF7C1FAB8613E4B1A68A6
:103AF80013469B001344DA00D31A1B0DFA6902FB24
:103B080003F33B6162E0BB68B3F5C06F09D17B6822
:103B1800002B06D1FB681B680C331B78DBB27B617A
:103B28007B693B68B3F1FF3F50D0FDF79FFA02462F
:103B3800BB69D31AFA699A4202D9FB69002B3DD1B5
:103B4800FB681B685A68FB681B6822F0E0025A6031
:103B5800FB685B68B3F5827F11D1FB689B68B3F59E
:103B6800004F04D0FB689B68B3F5806F07D1FB68F2
:103B78001B681A68FB681B6822F040021A60FB6821
:103B88009B6AB3F5005F0FD1FB681B681A68FB6876
:103B98001B6822F400521A60FB681B681A68FB68ED
:103BA8001B6842F400521A60FB68012283F85D200A
:103BB800FB68002283F85C20032310E03B69002B9C
:103BC80001D10023FB613B69013B3B61FB681B683A
:103BD8009A68BB6813407A689A4294D100231846C1
:103BE8002037BD4680BD00BF6000002080B586B08C
:103BF80002AFF860B9607A60FB685B68B3F5827FF2
:103C080011D1FB689B68B3F5004F04D0FB689B6833
:103C1800B3F5806F07D1FB681B681A68FB681B68DF
:103C280022F040021A607B680093BB680022802162
:103C3800F868FFF7C1FE0346002B07D0FB681B6E30
:103C480043F02002FB681A66032323E0FB685B68E5
:103C5800B3F5827F1DD1FB689B68B3F5004F04D094
:103C6800FB689B68B3F5806F13D17B680093BB68D2
:103C780000224FF4C061F868FFF726FF0346002BC7
:103C880007D0FB681B6E43F02002FB681A6603230B
:103C980000E0002318461037BD4680BD80B586B0C9
:103CA80002AFF860B9607A607B680093BB68002255
:103CB8004FF4C051F868FFF707FF0346002B07D001
:103CC800FB681B6E43F02002FB681A66032327E09B
:103CD8007B680093BB6800228021F868FFF76CFEC0
:103CE8000346002B07D0FB681B6E43F02002FB68DD
:103CF8001A66032314E07B680093BB6800224FF424
:103D0800C061F868FFF7E0FE0346002B07D0FB68A8
:103D18001B6E43F02002FB681A66032300E00023B1
:103D280018461037BD4680BD80B582B000AF7860B8
:103D38007B68002B01D1012340E07B689B6F002B3F
:103D480006D17B68002283F874207868FDF76CF848
:103D58007B6824229A677B681B681A687B681B68E3
:103D680022F001021A60786800F02CF80346012B53
:103D780001D1012322E07B685B6A002B02D07868BE
:103D880000F082FA7B681B685A687B681B6822F41B
:103D980090425A607B681B689A687B681B6822F0AF
:103DA8002A029A607B681B681A687B681B6842F065
:103DB80001021A60786800F009FB034618460837C4
:103DC800BD4680BD80B588B000AF78600023BB7762
:103DD8007B689A687B681B691A437B685B691A432E
:103DE8007B68DB6913437B617B681B681A68A74B98
:103DF80013407A68126879690B4313607B681B6803
:103E08005B6823F440517B68DA687B681B680A4367
:103E18005A607B689B697B617B681B6A7A6913437C
:103E28007B617B681B689B6823F430617B681B6837
:103E38007A690A439A607B681B68954A934220D145
:103E4800944BD3F8903003F00303032B16D801A248
:103E580052F823F06D3E0008793E0008733E0008D2
:103E68007F3E00080123FB774FE10223FB774CE1FB
:103E78000423FB7749E10823FB7746E11023FB770E
:103E880043E17B681B68844A934232D1814BD3F863
:103E9800903003F00C030C2B28D801A252F823F021
:103EA800DD3E0008F53E0008F53E0008F53E000836
:103EB800E93E0008F53E0008F53E0008F53E00081A
:103EC800E33E0008F53E0008F53E0008F53E000810
:103ED800EF3E00080023FB7717E10223FB7714E18C
:103EE8000423FB7711E10823FB770EE11023FB770E
:103EF8000BE17B681B68694A934220D1654BD3F874
:103F0800903003F03003302B13D0302B14D8202BF3
:103F180009D0202B10D8002B02D0102B06D00BE094
:103F28000023FB77F1E00223FB77EEE00423FB7725
:103F3800EBE00823FB77E8E01023FB77E5E07B68FC
:103F48001B68574A934220D1524BD3F8903003F064
:103F5800C003C02B13D0C02B14D8802B09D0802BC2
:103F680010D8002B02D0402B06D00BE00023FB77A3
:103F7800CBE00223FB77C8E00423FB77C5E00823E6
:103F8800FB77C2E01023FB77BFE07B681B68454ADC
:103F9800934225D13F4BD3F8903003F44073B3F5E7
:103FA800407F17D0B3F5407F17D8B3F5007F0BD00B
:103FB800B3F5007F11D8002B03D0B3F5807F06D06E
:103FC8000BE00023FB77A0E00223FB779DE00423AE
:103FD800FB779AE00823FB7797E01023FB7794E0C0
:103FE8007B681B68304A934225D12A4BD3F890301E
:103FF80003F44063B3F5406F17D0B3F5406F17D89B
:10400800B3F5006F0BD0B3F5006F11D8002B03D0B8
:10401800B3F5806F06D00BE00123FB7775E0022330
:10402800FB7772E00423FB776FE00823FB776CE0F3
:104038001023FB7769E07B681B681C4A934237D1E1
:10404800144BD3F8903003F44053B3F5405F17D0C6
:10405800B3F5405F17D8B3F5005F0BD0B3F5005F39
:1040680011D8002B03D0B3F5805F06D00BE00023F6
:10407800FB774AE00223FB7747E00423FB7744E021
:104088000823FB7741E01023FB773EE0F369FFEF5D
:104098000010014000380240004400400048004041
:1040A800004C0040005000400014014000780040DF
:1040B8007B681B68714A934225D1714BD3F89030C5
:1040C80003F44043B3F5404F17D0B3F5404F17D82A
:1040D800B3F5004F0BD0B3F5004F11D8002B03D028
:1040E800B3F5804F06D00BE00023FB770DE00223E9
:1040F800FB770AE00423FB7707E00823FB7704E05B
:104108001023FB7701E01023FB777B68DB69B3F5AD
:10411800004F5BD1FB7F082B27D801A252F823F070
:104128004D410008554100085D41000873410008F1
:104138006341000873410008734100087341000897
:104148006B410008FEF78CFAB86113E0FEF79CFAA1
:10415800B8610FE04B4BBB610CE0FEF7BFF9B861EB
:1041680008E04FF40043BB6104E00023BB61012376
:10417800BB7700BFBB69002B74D0BB695A007B6852
:104188005B685B081A447B685B68B2FBF3F39BB21D
:104198003B613B690F2B16D93B69B3F5803F12D2BF
:1041A8003B699BB223F00F03FB813B695B089BB221
:1041B80003F007039AB2FB891343FB817B681B68F2
:1041C800FA89DA604EE00123BB774BE0FB7F082BCE
:1041D80027D801A252F823F0054200080D42000832
:1041E800154200082B4200081B4200082B42000819
:1041F8002B4200082B42000823420008FEF730FA41
:10420800B86113E0FEF740FAB8610FE01D4BBB61DF
:104218000CE0FEF763F9B86108E04FF40043BB61B6
:1042280004E00023BB610123BB7700BFBB69002BFF
:1042380018D07B685B685A08BB691A447B685B685E
:10424800B2FBF3F39BB23B613B690F2B08D93B6987
:10425800B3F5803F04D27B681B683A69DA6001E0F5
:104268000123BB777B6800225A667B6800229A6626
:10427800BB7F18462037BD4680BD00BF007C00408C
:10428800003802400024F40080B483B000AF7860A6
:104298007B685B6A03F00103002B0AD07B681B680C
:1042A8005B6823F400317B689A6A7B681B680A4361
:1042B8005A607B685B6A03F00203002B0AD07B68B4
:1042C8001B685B6823F480317B68DA6A7B681B684B
:1042D8000A435A607B685B6A03F00403002B0AD028
:1042E8007B681B685B6823F480217B681A6B7B689A
:1042F8001B680A435A607B685B6A03F00803002B5B
:104308000AD07B681B685B6823F400417B685A6BA2
:104318007B681B680A435A607B685B6A03F010037A
:10432800002B0AD07B681B689B6823F480517B684C
:104338009A6B7B681B680A439A607B685B6A03F028
:104348002003002B0AD07B681B689B6823F400516C
:104358007B68DA6B7B681B680A439A607B685B6AD8
:1043680003F04003002B1AD07B681B685B6823F4BA
:1043780080117B681A6C7B681B680A435A607B68EB
:104388001B6CB3F5801F0AD17B681B685B6823F43C
:10439800C0017B685A6C7B681B680A435A607B685B
:1043A8005B6A03F08003002B0AD07B681B685B689C
:1043B80023F400217B689A6C7B681B680A435A6067
:1043C80000BF0C37BD465DF8047B704780B586B0EA
:1043D80002AF78607B680022C3F88020FCF746FEB5
:1043E800F8607B681B681B6803F00803082B0ED174
:1043F8006FF07E430093FB6800224FF40011786849
:1044080000F02DF80346002B01D0032323E07B683E
:104418001B681B6803F00403042B0ED16FF07E4366
:104428000093FB6800224FF48001786800F017F8C9
:104438000346002B01D003230DE07B6820229A67F6
:104448007B682022DA677B6800221A667B68002274
:1044580083F87420002318461037BD4680BD80B508
:1044680084B000AFF860B9603B601346FB715EE052
:10447800BB69B3F1FF3F5AD0FCF7F8FD02463B6831
:10448800D31ABA699A4202D3BB69002B1BD1FB68C5
:104498001B681A68FB681B6822F4D0721A60FB68F4
:1044A8001B689A68FB681B6822F001029A60FB6827
:1044B80020229A67FB682022DA67FB68002283F8CB
:1044C8007420032343E0FB681B681B6803F00403A4
:1044D800002B2CD0FB681B68DB6903F40063B3F581
:1044E800006F24D1FB681B684FF400621A62FB68F6
:1044F8001B681A68FB681B6822F4D0721A60FB6894
:104508001B689A68FB681B6822F001029A60FB68C6
:1045180020229A67FB682022DA67FB682022C3F80A
:104528008020FB68002283F8742003230FE0FB68D7
:104538001B68DA69BB681340BA689A420CBF01234A
:104548000023DBB21A46FB799A4291D00023184621
:104558001037BD4680BD000080B500AF044905484E
:1045680000F0E6FB044800F06DFF00BF80BD00BF0F
:10457800C0D401005C020020E8E0000880B582B0E9
:1045880000AF0346FB7100224FF400510648FDF7C7
:10459800A1FBF91D642301220448FEF75CFD00BF5E
:1045A8000837BD4680BD00BF001C0240A4D70120CB
:1045B80080B582B000AF0346FB7101224FF4005171
:1045C8000648FDF787FBF91D642301220448FEF71E
:1045D80042FD00BF0837BD4680BD00BF001C024039
:1045E800A4D7012080B582B000AF7860396001227D
:1045F8004FF400510648FDF76DFB3B689AB26423FF
:1046080079680448FEF727FD00BF0837BD4680BD1E
:10461800001C0240A4D7012080B582B000AF00235F
:10462800FB7101224FF400510648FDF753FBF91DB9
:10463800642301220448FEF77CFEFB7918460837FC
:10464800BD4680BD001C0240A4D7012080B582B0C1
:1046580000AF7860396001224FF400510648FDF739
:1046680039FB3B689AB2642379680448FEF761FE17
:1046780000BF0837BD4680BD001C0240A4D70120FA
:1046880080B5A0B000AF07F1680300221A605A6035
:104698009A60DA601A613B4668220021184608F0E1
:1046A800AFFA002300222249224801F0C9F8F8672E
:1046B800A0228021002001F0A7FFA0228021002055
:1046C80001F0BAFF06233B6707F168031946F86F44
:1046D80002F0B3FA184B3B60184B7B60184BFB6039
:1046E800184B7B61184BFB613946184B184AF86F19
:1046F80002F0C1FA01F09AFE0346002B0AD080228C
:10470800A021002001F080FF8022A021002001F0DC
:1047180093FF09E0A0228021002001F075FFA0226C
:104728008021002001F088FF00BF8037BD4680BD92
:1047380044CC000840D0000885450008B945000869
:10474800ED45000821460008554600084973000851
:10475800E976000880B586B000AFF860B9607A6085
:10476800BB68012B03D100F00BF8002303E04FF0E6
:10477800FF337B617B6918461837BD4680BD000052
:1047880080B500AF01224FF40071A548FDF7A2FAE9
:1047980001224FF40051A348FDF79CFA0022402162
:1047A800A148FDF797FA01224FF400719C48FDF7E4
:1047B80091FA1E20FCF766FC00224FF4007198481D
:1047C800FDF788FA0A20FCF75DFC01224FF400711E
:1047D8009348FDF77FFAC820FCF754FC0120FFF747
:1047E800CDFE6420FCF74EFCCB20FFF7C7FE392036
:1047F800FFF7DEFE2C20FFF7DBFE0020FFF7D8FED8
:104808003420FFF7D5FE0220FFF7D2FECF20FFF7B6
:10481800B5FE0020FFF7CCFEC120FFF7C9FE30200F
:10482800FFF7C6FEE820FFF7A9FE8520FFF7C0FEC8
:104838000020FFF7BDFE7820FFF7BAFEEA20FFF759
:104848009DFE0020FFF7B4FE0020FFF7B1FEED202B
:10485800FFF794FE6420FFF7ABFE0320FFF7A8FEE6
:104868001220FFF7A5FE8120FFF7A2FEF720FFF731
:1048780085FE2020FFF79CFEC020FFF77FFE232047
:10488800FFF796FEC120FFF779FE1020FFF790FE94
:10489800C520FFF773FE3E20FFF78AFE2820FFF7AA
:1048A80087FEC720FFF76AFE8620FFF781FE3620C5
:1048B800FFF764FE4820FFF77BFE3A20FFF75EFE15
:1048C8005520FFF775FEB120FFF758FE0020FFF7CF
:1048D8006FFE1820FFF76CFEB620FFF74FFE08208A
:1048E800FFF766FEA220FFF763FE2720FFF760FEB2
:1048F800F220FFF743FE0020FFF75AFE2A20FFF7B9
:104908003DFE0020FFF754FE0020FFF751FE002077
:10491800FFF74EFEEF20FFF74BFE2B20FFF72EFE92
:104928000020FFF745FE0020FFF742FE0120FFF7B9
:104938003FFE3F20FFF73CFE2620FFF71FFE012029
:10494800FFF736FEE020FFF719FE0F20FFF730FED5
:104958003120FFF72DFE2B20FFF72AFE0C20FFF752
:1049680027FE0E20FFF724FE0820FFF721FE4E2029
:10497800FFF71EFEF120FFF71BFE3720FFF718FE9A
:104988000720FFF715FE1020FFF712FE0320FFF7A0
:104998000FFE0E20FFF70CFE0920FFF709FE00208E
:1049A800FFF706FEE120FFF7E9FD0020FFF700FE14
:1049B8000E20FFF7FDFD1420FFF7FAFD0320FFF797
:1049C800F7FD1120FFF7F4FD0720FFF7F1FD312077
:1049D800FFF7EEFDC120FFF7EBFD4820FFF7E8FDEC
:1049E8000820FFF7E5FD0F20FFF7E2FD0C20FFF799
:1049F800DFFD3120FFF7DCFD3620FFF7D9FD0F2062
:104A0800FFF7D6FD1120FFF7B9FD6420FCF73AFB4C
:104A18002920FFF7B3FD2C20FFF7B0FD00BF80BDB4
:104A280000200240001C02400008024080B400AF91
:104A380000BFBD465DF8047B70470000C0F3451316
:104A4800064AD15CC0F3C423054A00F01F00D35CBA
:104A5800105C1B0403EB01231844704784CF000843
:104A6800C4CF0008C0F30723064AD15CC0F307434C
:104A7800054AC0B2D35C105CDB0203EB4113184457
:104A8800704700BF84CC000884CD00084FF6FF7043
:104A980070470000F0B5DFF834E00B4E50F8045BC7
:104AA800013AC5F307241EF80470C5F30744EDB2B4
:104AB800345D755D4FEAC42404EB47142C440C8024
:104AC8001944EBD1F0BD00BF84CD000884CC0008A8
:104AD800F0B5541E0F4E104F03FB040002F1804442
:104AE800013C01EB84010588013AA0EB03004FEA81
:104AF800D52416F804E005F01F04C5F34515345D08
:104B08007D5D04EB0E4404EB052441F80449EAD129
:104B1800F0BD00BFC4CF000884CF0008074B5A6817
:104B2800013210B55A605A6B5C6A02EBC0014C60E6
:104B3800002102F83010586210BD00BFD8D80120FB
:104B480010B50F2344680D4901EBC302126C94425F
:104B58000A4A03D213F1FF33F6D210BD0F2B0CD83B
:104B68001168091B11608168C06801B1486008B10B
:104B7800016010BD02EBC303596410BDD8D80120F1
:104B8800F8B5274E054608180C46F368B26B013B8A
:104B98001344834205D34B591BB943681D44FFF79F
:104BA800CFFFB36B9C420AD954F8047CE71B3B68DF
:104BB8002BB97B683C4638461D44FFF7C1FF0F23DD
:104BC80006EBC302126C954203D213F1FF33F7D2FE
:104BD80023E00F2B21D80833601906EBC302516874
:104BE80000222461A16084E8240040F8045C04F1F8
:104BF800080001B1486006EBC303A160E260586099
:104C080033680749EA1896F8293032602BB9CB681F
:104C18009B1A8A68934288BF8B602846F8BD00BFFC
:104C2800D8D801202DE9F74F234F8346FE68B846B0
:104C3800BC6B013E264494E828009BBB61198E4258
:104C480030D954F805A0BAF1000F2BD07B6B13F8BC
:104C58003A30012B26D1D8F82C302046D1F80490D0
:104C680000930191FFF76CFF0199D8F83420086888
:104C780002EBC002204654604A4607F0A7FF009B9B
:104C880004EB090128469A4502BFD8F834305B1B6B
:104C9800C8F83430FFF774FFBBF1000F01D0584556
:104CA80005D24D462C44A642C5D8012000E000207C
:104CB80003B0BDE8F08F00BFD8D8012028B1034B5E
:104CC800DA6B026002B15060D8637047D8D801200F
:104CD800034B5B6B03EBC00040680830704700BFB4
:104CE800D8D80120054BDA690132DA615A6B12F81B
:104CF8003030013302F83030FFF7EABFD8D801204E
:104D080003680A4930B553F8085C4C6B14F8353021
:104D1800012B03D9CA690AB1013ACA61013B04F8F7
:104D2800353000230360184630BD00BFD8D80120B5
:104D3800024B21F003011860596070478800002079
:104D480010B5044660B1074B5B6B03EBC0035968B1
:104D58004868FFF715FF2046BDE81040FFF7DEBEA4
:104D680010BD00BFD8D801202DE9F041224CE36ADC
:104D78003BB9224B9D685B680835B3FBF5F50235F6
:104D880003E023691D1D05EBD305E80000F0F2F8E8
:104D9800804660B3616B226901EBC003E76AD20009
:104DA8005E68174B08361B68304698472269691EAB
:104DB80066631346C4F82C808B4205D2013306EB98
:104DC800C30040F8043CF7E706EBC3064FF00008C1
:104DD8003846C6F80480636862629B1A25612B44D2
:104DE80063603FB1FFF7ACFF4046BDE8F0810120AA
:104DF800BDE8F081BDE8F081D8D801208800002006
:104E080020000020174A70B592F8283043BB0123D0
:104E180082F82830144B996811B959688908996043
:104E28005A2110261162002102EBC10006FA01F591
:104E380001310C4C05641029F6D119680125586810
:104E48000223A1632361A0F11403E0600B446363B0
:104E58005D6065626560FFF793FEFFF785FF256378
:104E680070BD00BFD8D80120880000202DE9F0418E
:104E78000746264EFFF7C6FF0337306CF26B27F064
:104E8800030714460437874238BF074634B154F83D
:104E9800043C9F4223682CD01C46F7E7F368B26BAA
:104EA80002EB030858F8045CC5EB08052B6833B11E
:104EB8002046FFF7B7FE58F8045CC5EB08052B68D9
:104EC8000BBB6B689F421EDC28461C1DFFF738FE93
:104ED800F3686868E41BDB1BC01B2C44F360736930
:104EE8003B44736102D02946FFF74AFE44F8047C2C
:104EF80009E00BB161685960616801B10B60A242B9
:104F080001D12368F3632046BDE8F081D8D8012099
:104F180008B5FFF777FF00230B4A9918D1F8BC00B2
:104F280010B1836800200BE0083B13F1800FF4D127
:104F380008E05A689B68904238BF104613B19B68D6
:104F4800002BF6D10C3808BDD8D8012008B5FFF7DA
:104F5800DFFF6422B0F5800F054B85BF90FBF2F0B0
:104F68001B6A1B6A58439CBF5843B0FBF2F008BD4C
:104F7800D8D801202DE9F843394E0446FFF742FFFF
:104F8800356C3368AC4224BF033424F00305344C39
:104F98000C35AB423ED3236B62689A420FD97368D3
:104FA800776A013B4FEAC7087360736B03EB08022B
:104FB80052687262012203F8372057B92AE0013B90
:104FC8002363FFF7D1FE236B013323630028E6D068
:104FD80020E00F2306EBC302126C95420CD213F1AA
:104FE800FF33F7D208E094682CB16268954214D96F
:104FF800A268002AF7D101330F2B03D806EBC302AE
:10500800526CF6E72846FFF70DFE0028E1D0384637
:10501800FFF784FD0020BDE8F883D4F8049020460B
:10502800336CC5EB09020C339A4238BF4D46FFF783
:1050380087FD736B61194D4598444FF00003C8F81C
:10504800044027606560A360246141F8045C03DACA
:10505800C5EB0900FFF794FD3846BDE8F88300BFAB
:10506800D8D8012008B1FFF785BF704773B5064649
:10507800FFF7F8FF054660B1FFF734FE02AC064BB8
:10508800324644F8040D00211B6898472046FFF774
:1050980037FE284602B070BD24000020C3B2CAB251
:1050A8009A1AC0F3072392B210B514B2002CBCBFF1
:1050B800524214B2C1F30722090C9B1AC1EB1041EA
:1050C8009BB289B21AB208B2002ABCBF5B421AB2BC
:1050D8000028B8BF494202FB02F2B8BF08B204FB7D
:1050E800042280B200FB002010BD08B501F040F991
:1050F800BDE8084001F042B808B501F041F9BDE843
:10510800084001F03BB80000044BB3F900300360DD
:10511800034BB3F900300B60704700BFC0D90120C2
:10512800B0D9012004483523037034238370C37039
:1051380061230371704700BF0000002010B538B329
:1051480009B30AB3B2F90040B1F90030A342A8BFCD
:105158002346B2F902400380B1F90230A342A8BF46
:105168002346B2F90440B2F906204380B1F904306D
:10517800A342B8BF23468380B1F906309342B8BF33
:105188001346C38010BD11460B6803604B6843602B
:1051980010BD68B189B2038892B20B44038083883A
:1051A80019444388134481804380C3881A44C280C9
:1051B800704700000C4B10B51C681CB1A047041CBC
:1051C80018BF012404F0AEFC084B00281B6818BF68
:1051D80001241BB19847002818BF0124044B1B6801
:1051E80003B19847204610BDBCD90120E4D901205D
:1051F800DCD9012010B50024FFF7DCFF08B1012439
:10520800FAE7204610BD0000024B1B6858840020B6
:105218009984704714000020024B1B681A7E187688
:105228001046704714000020B0F90220B1F906308A
:105238009A4214DCB1F90220B0F906309A420EDC29
:10524800B0F90020B1F904309A4208DCB0F9040042
:10525800B1F900308342CCBF002001207047002004
:105268007047000008B5034B7422196807F0A0FCCA
:1052780008BD00BF1400002008B5034B0146742286
:10528800186807F095FC08BD1400002008B501F067
:1052980083F901F0E9F9BDE8084004F07FBC00F0AB
:1052A800B3BF00F0B7BF00F073BC0000034B1B682E
:1052B800DA6900B1D8611046704700BF14000020B9
:1052C800024B1B689A7E987610467047140000209F
:1052D800094B0A4610B41880084B1980084B1B6804
:1052E800597C084B53F82130D9680C6A0146184696
:1052F80023465DF8044B1847C0D90120B0D90120D6
:1053080014000020E8D90120034B1B68B3F92C20B6
:1053180098851046704700BF14000020034B1B6897
:10532800B3F92A2058851046704700BF14000020A2
:1053380008B50E4B186800F067FF0D4B186800F0B1
:1053480069FF0120FFF768FF0020FFF7DDFF00205D
:10535800FFF7E4FF0020FFF7A6FF064B1868FFF7EA
:10536800A5FF0020BDE80840FFF7AABF9C00002069
:10537800100000200C00002070B51A4E04461A4D8B
:1053880006F1840304F108010367EB681A1D9B63A7
:105398001B64DA6303F1080242615A7C134B53F829
:1053A8002200C3681B6B9847114B63666B68E36107
:1053B800EB680833636101232376E37604F0D0FCBD
:1053C8000323A06484F868306FF070433068236367
:1053D800636300F019FFA86800F01CFF054A064B3C
:1053E8001A6070BD9C00002008000020E8D9012048
:1053F8005CCC000874CC0008E0D9012070B500240A
:105408000A4D0B4E7422C5F8804004353368214696
:105418002846984733680822214606489847064B8D
:10542800DD60064B1C70064B1C6070BD9C000020A4
:1054380024000020E8D9012008000020D0D901204C
:10544800ACD90120014B5860704700BF080000200C
:105458002DE9F3410446042016461F460D4600F088
:1054680097FB134B80466846DB68DA6C1B6D144467
:1054780016441D441F44ADF80040ADF80460ADF873
:105488000250ADF8067004F0D9F928B9404600F08A
:105498007FFB02B0BDE8F0813B46324629462046F4
:1054A80000F0D4FB04F008F90028F5D1EEE700BFBE
:1054B80008000020002110B50846FFF7A5FE43F6B6
:1054C800FF7303491A460846BDE81040FFF7C0BFFE
:1054D80001C0FFFFF0B5204D85B0D5F88030002B16
:1054E80037D101236A466E46C5F880301B4B03F15D
:1054F80008071868083353F8041C1446BB4203C451
:105508002246F6D1186899889B792060A3713346A2
:10551800A180134C13F8012B04F8012B1A78002AE8
:10552800F8D1FFF7FFFD10F8013B224604F8013BD4
:105538000378002BF7D15370FFF70EF8FFF7A0F8A8
:10554800084B0948C5F8983005B0BDE8F04000F0B0
:10555800D1B805B0F0BD00BF9C00002064CC0008A5
:1055680020010020055400083401002090B583B0C4
:1055780000AF534A524B1B6823F001031360514B91
:105588001B68C3F30A0340F2494293420CBF01234C
:105598000023DAB24B4B1B68C3F30A0340F25141B4
:1055A8008B420CBF01230023DBB21343DBB2194645
:1055B800444B1B68C3F30A0340F2524293420CBFA8
:1055C80001230023DBB20B43002B10D03E4B0122FA
:1055D8001A6000BF3C4B1B68002BFBD13B4B3C4A7D
:1055E8001A603A4B1B683B4A934218D0FEE73A4B85
:1055F8001B68C3F30A03B3F58A6F10D1374B012236
:105608001A6000BF354B1B68002BFBD1344B304A66
:105618001A60334B1B682F4A934200D0FEE7FFF70E
:1056280059FF304B2E221A70FFF700FA2E48FFF769
:10563800A3FE00F043FD786000F03EFF0346002B18
:105648000CBF01230023DCB200F03CFF0346002B13
:105658000CBF01230023DBB22343DBB2002B09D0AC
:1056680000F01AFF044600F01AFF034619462046C8
:1056780000F01CFF00210020FFF72AFE04F0F8FAD2
:105688001A4B1B68002B12D00DE0184B1B681B68C7
:10569800002B03D0154B1B681B689847134B1B68DE
:1056A8005B68124A1360114B1B68002BEDD1104B3D
:1056B80001221A707B6818460C37BD4690BD00BFA2
:1056C800002000E0002004E00830024000300240E2
:1056D800C2A507F4CDB5E8B50010005C084C025827
:1056E800004C0258A0D90120A00000201801002079
:1056F800C8D9012080B483B000AF7860064B1A681F
:105708007B685A60044A7B68136000BF0C37BD464B
:105718005DF8047B704700BF14010020012809DCF4
:10572800054B53F8200020B1C3681B681BB1006803
:10573800F9E7704700207047E8D90120FFF7BEBAA3
:10574800012BF8B506460D4617461C4601DD00201C
:10575800F8BD1C20FFF78AFB0028F8D00DB10561C1
:1057680009E0094B53F8241029B10B680BB119460D
:10577800FBE70B690361002384618782C6600360CD
:1057880043608360F8BD00BFE8D9012081690A4AF7
:1057980052F821309842036804D142F821300BB105
:1057A80000225A60426802B11360036803B15A606C
:1057B8000023036043607047E8D9012030B508B979
:1057C800012030BD8469012CFADC1B4B1A78944205
:1057D800A4BF621C1A70194A52F8243015461BB926
:1057E80042F82400184630BD5A680AB11346FBE750
:1057F800C2681268D9680968914203DD1B68002BEA
:10580800F8D1DDE709D1818A012906D1196821B1CA
:105818000B46C96809688A42F8DD5A6812B11060F7
:10582800426001E045F824005860984208BF002310
:105838000360002030BD00BF9AD90120E8D90120BB
:1058480038B51D46FFF77CFF044648B1FFF7B6FFA1
:10585800E3681B6823B9034B16351B6843F82540DA
:10586800204638BD140000202DE9F04F054685B0CC
:1058780000287FD0414C04F0CDFD07462368A1469F
:10588800B3F9228004F0AEFD226886B2938C9B1B8C
:1058980093842B78002B61D047F6FF71284604F0DB
:1058A80021FE01468246284604F046FE2268938D72
:1058B80003F00303012B04D0022B04D190FBF3F374
:1058C80002E0034600E00023518C1FFA80FB2846C3
:1058D800CB1A9BB219B25184ADF808100BF1FF3105
:1058E800B2F924200B445146ADF80A20013AADF82C
:1058F8000C30BBB21A440193ADF80E2002AA04F092
:105908004BFE2268BDF80A1028469184514600F0E3
:105918008DF82A5C05EB000E019B0A2A01D00D2A9E
:1059280012D12268918D01F00301013901298ABF42
:10593800118CA2F8228051849EF800100A290AD1FD
:10594800918C0B44938406E0BDF80800D9F8003028
:105958008344A3F822B09EF8003043B923689A8C98
:1059680016449A8D22F003029E849A8502E00EF175
:1059780001058EE705B0BDE8F08F00BF14000020D8
:10598800024B1B6859849A84FFF76EBF14000020ED
:10599800F8B50B4B05460E4617461B68B3F92C00A5
:1059A80040F00200FFF7B0FC04463A46284631466C
:1059B800FFF7E6FF2046BDE8F840FFF7A5BC00BFAB
:1059C80014000020024B1A6802B9186000F04AB8A7
:1059D8003C010020094A136851688B4210B50BD06E
:1059E800074CA34293E8030014BF0833503B1360ED
:1059F80004F01EFA012010BD002010BD1800002080
:105A080090010020F8B5084E054604683368204622
:105A18001B6898473368074620465B6898472044C8
:105A280028603846F8BD00BFE0D90120F8B5064621
:105A38000D460024054F3DB13B683046013D5B688B
:105A4800984706440444F6E72046F8BDE0D901200B
:105A580000787047012070470120704701700120CD
:105A680070470000024B1B6803B11847704700BF1E
:105A78009C010020B1F90030B0F900209A42B0F939
:105A88000220B8BF0380B1F902309A42B0F904206D
:105A9800B8BF4380B1F904309A42B0F90620C8BFB4
:105AA8008380B1F906309A42C8BFC380704770B589
:105AB800B1F900300646B2F90050B1F904409D42F0
:105AC800B8BF1D46B1F902300580B2F90200834221
